{
  "_format": "hh-sol-artifact-1",
  "contractName": "BalanceInUSD",
  "sourceName": "contracts/Captain.sol",
  "abi": [
    {
      "inputs": [],
      "stateMutability": "nonpayable",
      "type": "constructor"
    },
    {
      "inputs": [],
      "name": "getThePrice",
      "outputs": [
        {
          "internalType": "int256",
          "name": "",
          "type": "int256"
        }
      ],
      "stateMutability": "view",
      "type": "function"
    }
  ],
  "bytecode": "0x608060405261001261007b60201b60201c565b60015534801561002157600080fd5b50739326bfa02add2366b30bacb125260af6410313316000806101000a81548173ffffffffffffffffffffffffffffffffffffffff021916908373ffffffffffffffffffffffffffffffffffffffff160217905550610325565b60008060008054906101000a900473ffffffffffffffffffffffffffffffffffffffff1673ffffffffffffffffffffffffffffffffffffffff1663feaf968c6040518163ffffffff1660e01b815260040160a06040518083038186803b1580156100e457600080fd5b505afa1580156100f8573d6000803e3d6000fd5b505050506040513d601f19601f8201168201806040525081019061011c9190610177565b5050509150506305f5e1008161013291906101ee565b91505090565b600081519050610147816102e0565b92915050565b60008151905061015c816102f7565b92915050565b6000815190506101718161030e565b92915050565b600080600080600060a0868803121561018f57600080fd5b600061019d88828901610162565b95505060206101ae88828901610138565b94505060406101bf8882890161014d565b93505060606101d08882890161014d565b92505060806101e188828901610162565b9150509295509295909350565b60006101f982610258565b915061020483610258565b925082610214576102136102b1565b5b600160000383147f80000000000000000000000000000000000000000000000000000000000000008314161561024d5761024c610282565b5b828205905092915050565b6000819050919050565b6000819050919050565b600069ffffffffffffffffffff82169050919050565b7f4e487b7100000000000000000000000000000000000000000000000000000000600052601160045260246000fd5b7f4e487b7100000000000000000000000000000000000000000000000000000000600052601260045260246000fd5b6102e981610258565b81146102f457600080fd5b50565b61030081610262565b811461030b57600080fd5b50565b6103178161026c565b811461032257600080fd5b50565b610358806103346000396000f3fe608060405234801561001057600080fd5b506004361061002b5760003560e01c80638c3c9a5514610030575b600080fd5b61003861004e565b60405161004591906101d0565b60405180910390f35b60008060008054906101000a900473ffffffffffffffffffffffffffffffffffffffff1673ffffffffffffffffffffffffffffffffffffffff1663feaf968c6040518163ffffffff1660e01b815260040160a06040518083038186803b1580156100b757600080fd5b505afa1580156100cb573d6000803e3d6000fd5b505050506040513d601f19601f820116820180604052508101906100ef919061014a565b5050509150506305f5e1008161010591906101eb565b91505090565b60008151905061011a816102dd565b92915050565b60008151905061012f816102f4565b92915050565b6000815190506101448161030b565b92915050565b600080600080600060a0868803121561016257600080fd5b600061017088828901610135565b95505060206101818882890161010b565b945050604061019288828901610120565b93505060606101a388828901610120565b92505060806101b488828901610135565b9150509295509295909350565b6101ca81610255565b82525050565b60006020820190506101e560008301846101c1565b92915050565b60006101f682610255565b915061020183610255565b925082610211576102106102ae565b5b600160000383147f80000000000000000000000000000000000000000000000000000000000000008314161561024a5761024961027f565b5b828205905092915050565b6000819050919050565b6000819050919050565b600069ffffffffffffffffffff82169050919050565b7f4e487b7100000000000000000000000000000000000000000000000000000000600052601160045260246000fd5b7f4e487b7100000000000000000000000000000000000000000000000000000000600052601260045260246000fd5b6102e681610255565b81146102f157600080fd5b50565b6102fd8161025f565b811461030857600080fd5b50565b61031481610269565b811461031f57600080fd5b5056fea26469706673582212203ba2cb5598b7f1a3e9055deb97867e57b87a6cbb37f4d33aac5ab9c480b929d764736f6c63430008000033",
  "linkReferences": {},
  "deployedLinkReferences": {}
}