{
  "_format": "hh-sol-artifact-1",
  "contractName": "Captain",
  "sourceName": "contracts/Captain.sol",
  "abi": [
    {
      "inputs": [],
      "stateMutability": "payable",
      "type": "constructor"
    },
    {
      "anonymous": false,
      "inputs": [
        {
          "indexed": false,
          "internalType": "address",
          "name": "newConscript",
          "type": "address"
        }
      ],
      "name": "newConscriptLog",
      "type": "event"
    },
    {
      "inputs": [
        {
          "internalType": "uint256",
          "name": "",
          "type": "uint256"
        }
      ],
      "name": "conscripts",
      "outputs": [
        {
          "internalType": "contract Conscript",
          "name": "",
          "type": "address"
        }
      ],
      "stateMutability": "view",
      "type": "function"
    },
    {
      "inputs": [
        {
          "internalType": "string",
          "name": "_initName",
          "type": "string"
        }
      ],
      "name": "newConscript",
      "outputs": [],
      "stateMutability": "nonpayable",
      "type": "function"
    }
  ],
  "bytecode": "0x6080604052336000806101000a81548173ffffffffffffffffffffffffffffffffffffffff021916908373ffffffffffffffffffffffffffffffffffffffff160217905550610c99806100536000396000f3fe60806040523480156200001157600080fd5b50600436106200003a5760003560e01c806396238776146200003f578063c1dd1f6e146200005f575b600080fd5b6200005d600480360381019062000057919062000241565b62000095565b005b6200007d600480360381019062000077919062000286565b6200016a565b6040516200008c919062000332565b60405180910390f35b60008054906101000a900473ffffffffffffffffffffffffffffffffffffffff1673ffffffffffffffffffffffffffffffffffffffff163373ffffffffffffffffffffffffffffffffffffffff1614620000ee57600080fd5b600081306040516200010090620001aa565b6200010d9291906200034f565b604051809103906000f0801580156200012a573d6000803e3d6000fd5b5090507f88081f6c627789a1483488a93fe6c748de51c67006d5b6f79d5207d83a2c1ebb816040516200015e919062000315565b60405180910390a15050565b600181815481106200017b57600080fd5b906000526020600020016000915054906101000a900473ffffffffffffffffffffffffffffffffffffffff1681565b610758806200050c83390190565b6000620001cf620001c984620003b7565b62000383565b905082815260208101848484011115620001e857600080fd5b620001f58482856200046c565b509392505050565b600082601f8301126200020f57600080fd5b813562000221848260208601620001b8565b91505092915050565b6000813590506200023b81620004f1565b92915050565b6000602082840312156200025457600080fd5b600082013567ffffffffffffffff8111156200026f57600080fd5b6200027d84828501620001fd565b91505092915050565b6000602082840312156200029957600080fd5b6000620002a9848285016200022a565b91505092915050565b620002bd8162000406565b82525050565b620002ce8162000444565b82525050565b6000620002e182620003ea565b620002ed8185620003f5565b9350620002ff8185602086016200047b565b6200030a81620004e0565b840191505092915050565b60006020820190506200032c6000830184620002b2565b92915050565b6000602082019050620003496000830184620002c3565b92915050565b600060408201905081810360008301526200036b8185620002d4565b90506200037c6020830184620002b2565b9392505050565b6000604051905081810181811067ffffffffffffffff82111715620003ad57620003ac620004b1565b5b8060405250919050565b600067ffffffffffffffff821115620003d557620003d4620004b1565b5b601f19601f8301169050602081019050919050565b600081519050919050565b600082825260208201905092915050565b600062000413826200041a565b9050919050565b600073ffffffffffffffffffffffffffffffffffffffff82169050919050565b6000819050919050565b6000620004518262000458565b9050919050565b600062000465826200041a565b9050919050565b82818337600083830152505050565b60005b838110156200049b5780820151818401526020810190506200047e565b83811115620004ab576000848401525b50505050565b7f4e487b7100000000000000000000000000000000000000000000000000000000600052604160045260246000fd5b6000601f19601f8301169050919050565b620004fc816200043a565b81146200050857600080fd5b5056fe608060405234801561001057600080fd5b50604051610758380380610758833981810160405281019061003291906101b1565b8160009080519060200190610048929190610091565b5080600160006101000a81548173ffffffffffffffffffffffffffffffffffffffff021916908373ffffffffffffffffffffffffffffffffffffffff1602179055505050610372565b82805461009d906102cb565b90600052602060002090601f0160209004810192826100bf5760008555610106565b82601f106100d857805160ff1916838001178555610106565b82800160010185558215610106579182015b828111156101055782518255916020019190600101906100ea565b5b5090506101139190610117565b5090565b5b80821115610130576000816000905550600101610118565b5090565b600061014761014284610236565b610205565b90508281526020810184848401111561015f57600080fd5b61016a848285610298565b509392505050565b6000815190506101818161035b565b92915050565b600082601f83011261019857600080fd5b81516101a8848260208601610134565b91505092915050565b600080604083850312156101c457600080fd5b600083015167ffffffffffffffff8111156101de57600080fd5b6101ea85828601610187565b92505060206101fb85828601610172565b9150509250929050565b6000604051905081810181811067ffffffffffffffff8211171561022c5761022b61032c565b5b8060405250919050565b600067ffffffffffffffff8211156102515761025061032c565b5b601f19601f8301169050602081019050919050565b600061027182610278565b9050919050565b600073ffffffffffffffffffffffffffffffffffffffff82169050919050565b60005b838110156102b657808201518184015260208101905061029b565b838111156102c5576000848401525b50505050565b600060028204905060018216806102e357607f821691505b602082108114156102f7576102f66102fd565b5b50919050565b7f4e487b7100000000000000000000000000000000000000000000000000000000600052602260045260246000fd5b7f4e487b7100000000000000000000000000000000000000000000000000000000600052604160045260246000fd5b61036481610266565b811461036f57600080fd5b50565b6103d7806103816000396000f3fe60806040526004361061003f5760003560e01c806312065fe0146100445780635ada882d1461006f57806366dd22781461009a578063d70c03bc146100c5575b600080fd5b34801561005057600080fd5b506100596100e1565b6040516100669190610272565b60405180910390f35b34801561007b57600080fd5b506100846100e9565b6040516100919190610250565b60405180910390f35b3480156100a657600080fd5b506100af610177565b6040516100bc9190610235565b60405180910390f35b6100df60048036038101906100da91906101b5565b61019d565b005b600047905090565b600080546100f690610318565b80601f016020809104026020016040519081016040528092919081815260200182805461012290610318565b801561016f5780601f106101445761010080835404028352916020019161016f565b820191906000526020600020905b81548152906001019060200180831161015257829003601f168201915b505050505081565b600160009054906101000a900473ffffffffffffffffffffffffffffffffffffffff1681565b50565b6000813590506101af8161038a565b92915050565b6000602082840312156101c757600080fd5b60006101d5848285016101a0565b91505092915050565b6101e7816102a9565b82525050565b60006101f88261028d565b6102028185610298565b93506102128185602086016102e5565b61021b81610379565b840191505092915050565b61022f816102db565b82525050565b600060208201905061024a60008301846101de565b92915050565b6000602082019050818103600083015261026a81846101ed565b905092915050565b60006020820190506102876000830184610226565b92915050565b600081519050919050565b600082825260208201905092915050565b60006102b4826102bb565b9050919050565b600073ffffffffffffffffffffffffffffffffffffffff82169050919050565b6000819050919050565b60005b838110156103035780820151818401526020810190506102e8565b83811115610312576000848401525b50505050565b6000600282049050600182168061033057607f821691505b602082108114156103445761034361034a565b5b50919050565b7f4e487b7100000000000000000000000000000000000000000000000000000000600052602260045260246000fd5b6000601f19601f8301169050919050565b610393816102db565b811461039e57600080fd5b5056fea264697066735822122098e96f49a8613d158dc7d6fef2b5b07fe471b224eed7c61b5507e11c7bdf174064736f6c63430008000033a26469706673582212202e98fa9210cb98a1f57c9c9d89462cfbcf07849b198fd1ce57c55c978652ff7564736f6c63430008000033",
  "linkReferences": {},
  "deployedLinkReferences": {}
}