{
  "_format": "hh-sol-artifact-1",
  "contractName": "Conscript",
  "sourceName": "contracts/Captain.sol",
  "abi": [
    {
      "inputs": [
        {
          "internalType": "string",
          "name": "_initName",
          "type": "string"
        },
        {
          "internalType": "address",
          "name": "_newConscript",
          "type": "address"
        }
      ],
      "stateMutability": "nonpayable",
      "type": "constructor"
    },
    {
      "inputs": [],
      "name": "getBalance",
      "outputs": [
        {
          "internalType": "uint256",
          "name": "",
          "type": "uint256"
        }
      ],
      "stateMutability": "view",
      "type": "function"
    },
    {
      "inputs": [],
      "name": "initName",
      "outputs": [
        {
          "internalType": "string",
          "name": "",
          "type": "string"
        }
      ],
      "stateMutability": "view",
      "type": "function"
    },
    {
      "inputs": [],
      "name": "newConscript",
      "outputs": [
        {
          "internalType": "address",
          "name": "",
          "type": "address"
        }
      ],
      "stateMutability": "view",
      "type": "function"
    },
    {
      "inputs": [
        {
          "internalType": "uint256",
          "name": "amount",
          "type": "uint256"
        }
      ],
      "name": "receiveDonation",
      "outputs": [],
      "stateMutability": "payable",
      "type": "function"
    }
  ],
  "bytecode": "0x608060405234801561001057600080fd5b50604051610758380380610758833981810160405281019061003291906101b1565b8160009080519060200190610048929190610091565b5080600160006101000a81548173ffffffffffffffffffffffffffffffffffffffff021916908373ffffffffffffffffffffffffffffffffffffffff1602179055505050610372565b82805461009d906102cb565b90600052602060002090601f0160209004810192826100bf5760008555610106565b82601f106100d857805160ff1916838001178555610106565b82800160010185558215610106579182015b828111156101055782518255916020019190600101906100ea565b5b5090506101139190610117565b5090565b5b80821115610130576000816000905550600101610118565b5090565b600061014761014284610236565b610205565b90508281526020810184848401111561015f57600080fd5b61016a848285610298565b509392505050565b6000815190506101818161035b565b92915050565b600082601f83011261019857600080fd5b81516101a8848260208601610134565b91505092915050565b600080604083850312156101c457600080fd5b600083015167ffffffffffffffff8111156101de57600080fd5b6101ea85828601610187565b92505060206101fb85828601610172565b9150509250929050565b6000604051905081810181811067ffffffffffffffff8211171561022c5761022b61032c565b5b8060405250919050565b600067ffffffffffffffff8211156102515761025061032c565b5b601f19601f8301169050602081019050919050565b600061027182610278565b9050919050565b600073ffffffffffffffffffffffffffffffffffffffff82169050919050565b60005b838110156102b657808201518184015260208101905061029b565b838111156102c5576000848401525b50505050565b600060028204905060018216806102e357607f821691505b602082108114156102f7576102f66102fd565b5b50919050565b7f4e487b7100000000000000000000000000000000000000000000000000000000600052602260045260246000fd5b7f4e487b7100000000000000000000000000000000000000000000000000000000600052604160045260246000fd5b61036481610266565b811461036f57600080fd5b50565b6103d7806103816000396000f3fe60806040526004361061003f5760003560e01c806312065fe0146100445780635ada882d1461006f57806366dd22781461009a578063d70c03bc146100c5575b600080fd5b34801561005057600080fd5b506100596100e1565b6040516100669190610272565b60405180910390f35b34801561007b57600080fd5b506100846100e9565b6040516100919190610250565b60405180910390f35b3480156100a657600080fd5b506100af610177565b6040516100bc9190610235565b60405180910390f35b6100df60048036038101906100da91906101b5565b61019d565b005b600047905090565b600080546100f690610318565b80601f016020809104026020016040519081016040528092919081815260200182805461012290610318565b801561016f5780601f106101445761010080835404028352916020019161016f565b820191906000526020600020905b81548152906001019060200180831161015257829003601f168201915b505050505081565b600160009054906101000a900473ffffffffffffffffffffffffffffffffffffffff1681565b50565b6000813590506101af8161038a565b92915050565b6000602082840312156101c757600080fd5b60006101d5848285016101a0565b91505092915050565b6101e7816102a9565b82525050565b60006101f88261028d565b6102028185610298565b93506102128185602086016102e5565b61021b81610379565b840191505092915050565b61022f816102db565b82525050565b600060208201905061024a60008301846101de565b92915050565b6000602082019050818103600083015261026a81846101ed565b905092915050565b60006020820190506102876000830184610226565b92915050565b600081519050919050565b600082825260208201905092915050565b60006102b4826102bb565b9050919050565b600073ffffffffffffffffffffffffffffffffffffffff82169050919050565b6000819050919050565b60005b838110156103035780820151818401526020810190506102e8565b83811115610312576000848401525b50505050565b6000600282049050600182168061033057607f821691505b602082108114156103445761034361034a565b5b50919050565b7f4e487b7100000000000000000000000000000000000000000000000000000000600052602260045260246000fd5b6000601f19601f8301169050919050565b610393816102db565b811461039e57600080fd5b5056fea264697066735822122098e96f49a8613d158dc7d6fef2b5b07fe471b224eed7c61b5507e11c7bdf174064736f6c63430008000033",
  "linkReferences": {},
  "deployedLinkReferences": {}
}